{
  "contracts/score.sol": {
    "FraxtaL3aderboard2048": {
      "abi": [
        {
          "inputs": [
            {
              "internalType": "bytes32",
              "name": "key",
              "type": "bytes32"
            }
          ],
          "name": "EnumerableMapNonexistentKey",
          "type": "error"
        },
        {
          "inputs": [
            {
              "internalType": "address",
              "name": "_address",
              "type": "address"
            }
          ],
          "name": "getHighscore",
          "outputs": [
            {
              "internalType": "uint256",
              "name": "highscore",
              "type": "uint256"
            }
          ],
          "stateMutability": "view",
          "type": "function"
        },
        {
          "inputs": [
            {
              "internalType": "uint256",
              "name": "index",
              "type": "uint256"
            }
          ],
          "name": "getHighscoreByIndex",
          "outputs": [
            {
              "internalType": "address",
              "name": "_address",
              "type": "address"
            },
            {
              "internalType": "uint256",
              "name": "highscore",
              "type": "uint256"
            }
          ],
          "stateMutability": "view",
          "type": "function"
        },
        {
          "inputs": [],
          "name": "getHighscoreLength",
          "outputs": [
            {
              "internalType": "uint256",
              "name": "length",
              "type": "uint256"
            }
          ],
          "stateMutability": "view",
          "type": "function"
        },
        {
          "inputs": [
            {
              "internalType": "address",
              "name": "_address",
              "type": "address"
            }
          ],
          "name": "getName",
          "outputs": [
            {
              "internalType": "string",
              "name": "name",
              "type": "string"
            }
          ],
          "stateMutability": "view",
          "type": "function"
        },
        {
          "inputs": [],
          "name": "resetHighscore",
          "outputs": [],
          "stateMutability": "nonpayable",
          "type": "function"
        },
        {
          "inputs": [
            {
              "internalType": "uint256",
              "name": "_newHighscore",
              "type": "uint256"
            }
          ],
          "name": "updateHighscore",
          "outputs": [],
          "stateMutability": "nonpayable",
          "type": "function"
        },
        {
          "inputs": [
            {
              "internalType": "string",
              "name": "_name",
              "type": "string"
            }
          ],
          "name": "updatePlayerName",
          "outputs": [],
          "stateMutability": "nonpayable",
          "type": "function"
        }
      ],
      "evm": {
        "bytecode": {
          "linkReferences": {},
          "object": "608060405234801561001057600080fd5b50610d8c806100206000396000f3fe608060405234801561001057600080fd5b506004361061007d5760003560e01c80637ff11b881161005b5780637ff11b88146100ed578063a0bf942714610109578063e891606414610139578063febda2e8146101575761007d565b80630304c36e146100825780635fd4b08a1461008c5780636a239ee9146100bc575b600080fd5b61008a610173565b005b6100a660048036038101906100a191906106f3565b61018d565b6040516100b391906107b0565b60405180910390f35b6100d660048036038101906100d19190610808565b61025d565b6040516100e4929190610853565b60405180910390f35b61010760048036038101906101029190610808565b61027d565b005b610123600480360381019061011e91906106f3565b6102d2565b604051610130919061087c565b60405180910390f35b6101416102ef565b60405161014e919061087c565b60405180910390f35b610171600480360381019061016c91906109cc565b610300565b005b61018a336000600161034f9092919063ffffffff16565b50565b60606000808373ffffffffffffffffffffffffffffffffffffffff1673ffffffffffffffffffffffffffffffffffffffff16815260200190815260200160002080546101d890610a44565b80601f016020809104026020016040519081016040528092919081815260200182805461020490610a44565b80156102515780601f1061022657610100808354040283529160200191610251565b820191906000526020600020905b81548152906001019060200180831161023457829003601f168201915b50505050509050919050565b60008061027483600161038490919063ffffffff16565b91509150915091565b6102913360016103b090919063ffffffff16565b15806102af5750806102ad3360016103e090919063ffffffff16565b105b6102b857600080fd5b6102ce3382600161034f9092919063ffffffff16565b5050565b60006102e88260016103e090919063ffffffff16565b9050919050565b60006102fb6001610413565b905090565b806000803373ffffffffffffffffffffffffffffffffffffffff1673ffffffffffffffffffffffffffffffffffffffff168152602001908152602001600020908161034b9190610c21565b5050565b600061037b846000018473ffffffffffffffffffffffffffffffffffffffff1660001b8460001b610428565b90509392505050565b6000806000806103978660000186610463565b915091508160001c8160001c9350935050509250929050565b60006103d8836000018373ffffffffffffffffffffffffffffffffffffffff1660001b6104a3565b905092915050565b6000610408836000018373ffffffffffffffffffffffffffffffffffffffff1660001b6104c3565b60001c905092915050565b600061042182600001610543565b9050919050565b6000818460020160008581526020019081526020016000208190555061045a838560000161055890919063ffffffff16565b90509392505050565b600080600061047e848660000161056f90919063ffffffff16565b9050808560020160008381526020019081526020016000205492509250509250929050565b60006104bb828460000161058690919063ffffffff16565b905092915050565b6000808360020160008481526020019081526020016000205490506000801b811480156104f757506104f584846104a3565b155b1561053957826040517f02b566860000000000000000000000000000000000000000000000000000000081526004016105309190610d0c565b60405180910390fd5b8091505092915050565b60006105518260000161059d565b9050919050565b600061056783600001836105b2565b905092915050565b600061057e8360000183610622565b905092915050565b6000610595836000018361064d565b905092915050565b60006105ab82600001610670565b9050919050565b60006105be838361064d565b61061757826000018290806001815401808255809150506001900390600052602060002001600090919091909150558260000180549050836001016000848152602001908152602001600020819055506001905061061c565b600090505b92915050565b600082600001828154811061063a57610639610d27565b5b9060005260206000200154905092915050565b600080836001016000848152602001908152602001600020541415905092915050565b600081600001805490509050919050565b6000604051905090565b600080fd5b600080fd5b600073ffffffffffffffffffffffffffffffffffffffff82169050919050565b60006106c082610695565b9050919050565b6106d0816106b5565b81146106db57600080fd5b50565b6000813590506106ed816106c7565b92915050565b6000602082840312156107095761070861068b565b5b6000610717848285016106de565b91505092915050565b600081519050919050565b600082825260208201905092915050565b60005b8381101561075a57808201518184015260208101905061073f565b60008484015250505050565b6000601f19601f8301169050919050565b600061078282610720565b61078c818561072b565b935061079c81856020860161073c565b6107a581610766565b840191505092915050565b600060208201905081810360008301526107ca8184610777565b905092915050565b6000819050919050565b6107e5816107d2565b81146107f057600080fd5b50565b600081359050610802816107dc565b92915050565b60006020828403121561081e5761081d61068b565b5b600061082c848285016107f3565b91505092915050565b61083e816106b5565b82525050565b61084d816107d2565b82525050565b60006040820190506108686000830185610835565b6108756020830184610844565b9392505050565b60006020820190506108916000830184610844565b92915050565b600080fd5b600080fd5b7f4e487b7100000000000000000000000000000000000000000000000000000000600052604160045260246000fd5b6108d982610766565b810181811067ffffffffffffffff821117156108f8576108f76108a1565b5b80604052505050565b600061090b610681565b905061091782826108d0565b919050565b600067ffffffffffffffff821115610937576109366108a1565b5b61094082610766565b9050602081019050919050565b82818337600083830152505050565b600061096f61096a8461091c565b610901565b90508281526020810184848401111561098b5761098a61089c565b5b61099684828561094d565b509392505050565b600082601f8301126109b3576109b2610897565b5b81356109c384826020860161095c565b91505092915050565b6000602082840312156109e2576109e161068b565b5b600082013567ffffffffffffffff811115610a00576109ff610690565b5b610a0c8482850161099e565b91505092915050565b7f4e487b7100000000000000000000000000000000000000000000000000000000600052602260045260246000fd5b60006002820490506001821680610a5c57607f821691505b602082108103610a6f57610a6e610a15565b5b50919050565b60008190508160005260206000209050919050565b60006020601f8301049050919050565b600082821b905092915050565b600060088302610ad77fffffffffffffffffffffffffffffffffffffffffffffffffffffffffffffffff82610a9a565b610ae18683610a9a565b95508019841693508086168417925050509392505050565b6000819050919050565b6000610b1e610b19610b14846107d2565b610af9565b6107d2565b9050919050565b6000819050919050565b610b3883610b03565b610b4c610b4482610b25565b848454610aa7565b825550505050565b600090565b610b61610b54565b610b6c818484610b2f565b505050565b5b81811015610b9057610b85600082610b59565b600181019050610b72565b5050565b601f821115610bd557610ba681610a75565b610baf84610a8a565b81016020851015610bbe578190505b610bd2610bca85610a8a565b830182610b71565b50505b505050565b600082821c905092915050565b6000610bf860001984600802610bda565b1980831691505092915050565b6000610c118383610be7565b9150826002028217905092915050565b610c2a82610720565b67ffffffffffffffff811115610c4357610c426108a1565b5b610c4d8254610a44565b610c58828285610b94565b600060209050601f831160018114610c8b5760008415610c79578287015190505b610c838582610c05565b865550610ceb565b601f198416610c9986610a75565b60005b82811015610cc157848901518255600182019150602085019450602081019050610c9c565b86831015610cde5784890151610cda601f891682610be7565b8355505b6001600288020188555050505b505050505050565b6000819050919050565b610d0681610cf3565b82525050565b6000602082019050610d216000830184610cfd565b92915050565b7f4e487b7100000000000000000000000000000000000000000000000000000000600052603260045260246000fdfea2646970667358221220bc5290a8ded7d31f5e3a8799d827dd2c97d0ccae8e6a5591793cd8595470cf6e64736f6c63430008180033",
          "opcodes": "PUSH1 0x80 PUSH1 0x40 MSTORE CALLVALUE DUP1 ISZERO PUSH2 0x10 JUMPI PUSH1 0x0 DUP1 REVERT JUMPDEST POP PUSH2 0xD8C DUP1 PUSH2 0x20 PUSH1 0x0 CODECOPY PUSH1 0x0 RETURN INVALID PUSH1 0x80 PUSH1 0x40 MSTORE CALLVALUE DUP1 ISZERO PUSH2 0x10 JUMPI PUSH1 0x0 DUP1 REVERT JUMPDEST POP PUSH1 0x4 CALLDATASIZE LT PUSH2 0x7D JUMPI PUSH1 0x0 CALLDATALOAD PUSH1 0xE0 SHR DUP1 PUSH4 0x7FF11B88 GT PUSH2 0x5B JUMPI DUP1 PUSH4 0x7FF11B88 EQ PUSH2 0xED JUMPI DUP1 PUSH4 0xA0BF9427 EQ PUSH2 0x109 JUMPI DUP1 PUSH4 0xE8916064 EQ PUSH2 0x139 JUMPI DUP1 PUSH4 0xFEBDA2E8 EQ PUSH2 0x157 JUMPI PUSH2 0x7D JUMP JUMPDEST DUP1 PUSH4 0x304C36E EQ PUSH2 0x82 JUMPI DUP1 PUSH4 0x5FD4B08A EQ PUSH2 0x8C JUMPI DUP1 PUSH4 0x6A239EE9 EQ PUSH2 0xBC JUMPI JUMPDEST PUSH1 0x0 DUP1 REVERT JUMPDEST PUSH2 0x8A PUSH2 0x173 JUMP JUMPDEST STOP JUMPDEST PUSH2 0xA6 PUSH1 0x4 DUP1 CALLDATASIZE SUB DUP2 ADD SWAP1 PUSH2 0xA1 SWAP2 SWAP1 PUSH2 0x6F3 JUMP JUMPDEST PUSH2 0x18D JUMP JUMPDEST PUSH1 0x40 MLOAD PUSH2 0xB3 SWAP2 SWAP1 PUSH2 0x7B0 JUMP JUMPDEST PUSH1 0x40 MLOAD DUP1 SWAP2 SUB SWAP1 RETURN JUMPDEST PUSH2 0xD6 PUSH1 0x4 DUP1 CALLDATASIZE SUB DUP2 ADD SWAP1 PUSH2 0xD1 SWAP2 SWAP1 PUSH2 0x808 JUMP JUMPDEST PUSH2 0x25D JUMP JUMPDEST PUSH1 0x40 MLOAD PUSH2 0xE4 SWAP3 SWAP2 SWAP1 PUSH2 0x853 JUMP JUMPDEST PUSH1 0x40 MLOAD DUP1 SWAP2 SUB SWAP1 RETURN JUMPDEST PUSH2 0x107 PUSH1 0x4 DUP1 CALLDATASIZE SUB DUP2 ADD SWAP1 PUSH2 0x102 SWAP2 SWAP1 PUSH2 0x808 JUMP JUMPDEST PUSH2 0x27D JUMP JUMPDEST STOP JUMPDEST PUSH2 0x123 PUSH1 0x4 DUP1 CALLDATASIZE SUB DUP2 ADD SWAP1 PUSH2 0x11E SWAP2 SWAP1 PUSH2 0x6F3 JUMP JUMPDEST PUSH2 0x2D2 JUMP JUMPDEST PUSH1 0x40 MLOAD PUSH2 0x130 SWAP2 SWAP1 PUSH2 0x87C JUMP JUMPDEST PUSH1 0x40 MLOAD DUP1 SWAP2 SUB SWAP1 RETURN JUMPDEST PUSH2 0x141 PUSH2 0x2EF JUMP JUMPDEST PUSH1 0x40 MLOAD PUSH2 0x14E SWAP2 SWAP1 PUSH2 0x87C JUMP JUMPDEST PUSH1 0x40 MLOAD DUP1 SWAP2 SUB SWAP1 RETURN JUMPDEST PUSH2 0x171 PUSH1 0x4 DUP1 CALLDATASIZE SUB DUP2 ADD SWAP1 PUSH2 0x16C SWAP2 SWAP1 PUSH2 0x9CC JUMP JUMPDEST PUSH2 0x300 JUMP JUMPDEST STOP JUMPDEST PUSH2 0x18A CALLER PUSH1 0x0 PUSH1 0x1 PUSH2 0x34F SWAP1 SWAP3 SWAP2 SWAP1 PUSH4 0xFFFFFFFF AND JUMP JUMPDEST POP JUMP JUMPDEST PUSH1 0x60 PUSH1 0x0 DUP1 DUP4 PUSH20 0xFFFFFFFFFFFFFFFFFFFFFFFFFFFFFFFFFFFFFFFF AND PUSH20 0xFFFFFFFFFFFFFFFFFFFFFFFFFFFFFFFFFFFFFFFF AND DUP2 MSTORE PUSH1 0x20 ADD SWAP1 DUP2 MSTORE PUSH1 0x20 ADD PUSH1 0x0 KECCAK256 DUP1 SLOAD PUSH2 0x1D8 SWAP1 PUSH2 0xA44 JUMP JUMPDEST DUP1 PUSH1 0x1F ADD PUSH1 0x20 DUP1 SWAP2 DIV MUL PUSH1 0x20 ADD PUSH1 0x40 MLOAD SWAP1 DUP2 ADD PUSH1 0x40 MSTORE DUP1 SWAP3 SWAP2 SWAP1 DUP2 DUP2 MSTORE PUSH1 0x20 ADD DUP3 DUP1 SLOAD PUSH2 0x204 SWAP1 PUSH2 0xA44 JUMP JUMPDEST DUP1 ISZERO PUSH2 0x251 JUMPI DUP1 PUSH1 0x1F LT PUSH2 0x226 JUMPI PUSH2 0x100 DUP1 DUP4 SLOAD DIV MUL DUP4 MSTORE SWAP2 PUSH1 0x20 ADD SWAP2 PUSH2 0x251 JUMP JUMPDEST DUP3 ADD SWAP2 SWAP1 PUSH1 0x0 MSTORE PUSH1 0x20 PUSH1 0x0 KECCAK256 SWAP1 JUMPDEST DUP2 SLOAD DUP2 MSTORE SWAP1 PUSH1 0x1 ADD SWAP1 PUSH1 0x20 ADD DUP1 DUP4 GT PUSH2 0x234 JUMPI DUP3 SWAP1 SUB PUSH1 0x1F AND DUP3 ADD SWAP2 JUMPDEST POP POP POP POP POP SWAP1 POP SWAP2 SWAP1 POP JUMP JUMPDEST PUSH1 0x0 DUP1 PUSH2 0x274 DUP4 PUSH1 0x1 PUSH2 0x384 SWAP1 SWAP2 SWAP1 PUSH4 0xFFFFFFFF AND JUMP JUMPDEST SWAP2 POP SWAP2 POP SWAP2 POP SWAP2 JUMP JUMPDEST PUSH2 0x291 CALLER PUSH1 0x1 PUSH2 0x3B0 SWAP1 SWAP2 SWAP1 PUSH4 0xFFFFFFFF AND JUMP JUMPDEST ISZERO DUP1 PUSH2 0x2AF JUMPI POP DUP1 PUSH2 0x2AD CALLER PUSH1 0x1 PUSH2 0x3E0 SWAP1 SWAP2 SWAP1 PUSH4 0xFFFFFFFF AND JUMP JUMPDEST LT JUMPDEST PUSH2 0x2B8 JUMPI PUSH1 0x0 DUP1 REVERT JUMPDEST PUSH2 0x2CE CALLER DUP3 PUSH1 0x1 PUSH2 0x34F SWAP1 SWAP3 SWAP2 SWAP1 PUSH4 0xFFFFFFFF AND JUMP JUMPDEST POP POP JUMP JUMPDEST PUSH1 0x0 PUSH2 0x2E8 DUP3 PUSH1 0x1 PUSH2 0x3E0 SWAP1 SWAP2 SWAP1 PUSH4 0xFFFFFFFF AND JUMP JUMPDEST SWAP1 POP SWAP2 SWAP1 POP JUMP JUMPDEST PUSH1 0x0 PUSH2 0x2FB PUSH1 0x1 PUSH2 0x413 JUMP JUMPDEST SWAP1 POP SWAP1 JUMP JUMPDEST DUP1 PUSH1 0x0 DUP1 CALLER PUSH20 0xFFFFFFFFFFFFFFFFFFFFFFFFFFFFFFFFFFFFFFFF AND PUSH20 0xFFFFFFFFFFFFFFFFFFFFFFFFFFFFFFFFFFFFFFFF AND DUP2 MSTORE PUSH1 0x20 ADD SWAP1 DUP2 MSTORE PUSH1 0x20 ADD PUSH1 0x0 KECCAK256 SWAP1 DUP2 PUSH2 0x34B SWAP2 SWAP1 PUSH2 0xC21 JUMP JUMPDEST POP POP JUMP JUMPDEST PUSH1 0x0 PUSH2 0x37B DUP5 PUSH1 0x0 ADD DUP5 PUSH20 0xFFFFFFFFFFFFFFFFFFFFFFFFFFFFFFFFFFFFFFFF AND PUSH1 0x0 SHL DUP5 PUSH1 0x0 SHL PUSH2 0x428 JUMP JUMPDEST SWAP1 POP SWAP4 SWAP3 POP POP POP JUMP JUMPDEST PUSH1 0x0 DUP1 PUSH1 0x0 DUP1 PUSH2 0x397 DUP7 PUSH1 0x0 ADD DUP7 PUSH2 0x463 JUMP JUMPDEST SWAP2 POP SWAP2 POP DUP2 PUSH1 0x0 SHR DUP2 PUSH1 0x0 SHR SWAP4 POP SWAP4 POP POP POP SWAP3 POP SWAP3 SWAP1 POP JUMP JUMPDEST PUSH1 0x0 PUSH2 0x3D8 DUP4 PUSH1 0x0 ADD DUP4 PUSH20 0xFFFFFFFFFFFFFFFFFFFFFFFFFFFFFFFFFFFFFFFF AND PUSH1 0x0 SHL PUSH2 0x4A3 JUMP JUMPDEST SWAP1 POP SWAP3 SWAP2 POP POP JUMP JUMPDEST PUSH1 0x0 PUSH2 0x408 DUP4 PUSH1 0x0 ADD DUP4 PUSH20 0xFFFFFFFFFFFFFFFFFFFFFFFFFFFFFFFFFFFFFFFF AND PUSH1 0x0 SHL PUSH2 0x4C3 JUMP JUMPDEST PUSH1 0x0 SHR SWAP1 POP SWAP3 SWAP2 POP POP JUMP JUMPDEST PUSH1 0x0 PUSH2 0x421 DUP3 PUSH1 0x0 ADD PUSH2 0x543 JUMP JUMPDEST SWAP1 POP SWAP2 SWAP1 POP JUMP JUMPDEST PUSH1 0x0 DUP2 DUP5 PUSH1 0x2 ADD PUSH1 0x0 DUP6 DUP2 MSTORE PUSH1 0x20 ADD SWAP1 DUP2 MSTORE PUSH1 0x20 ADD PUSH1 0x0 KECCAK256 DUP2 SWAP1 SSTORE POP PUSH2 0x45A DUP4 DUP6 PUSH1 0x0 ADD PUSH2 0x558 SWAP1 SWAP2 SWAP1 PUSH4 0xFFFFFFFF AND JUMP JUMPDEST SWAP1 POP SWAP4 SWAP3 POP POP POP JUMP JUMPDEST PUSH1 0x0 DUP1 PUSH1 0x0 PUSH2 0x47E DUP5 DUP7 PUSH1 0x0 ADD PUSH2 0x56F SWAP1 SWAP2 SWAP1 PUSH4 0xFFFFFFFF AND JUMP JUMPDEST SWAP1 POP DUP1 DUP6 PUSH1 0x2 ADD PUSH1 0x0 DUP4 DUP2 MSTORE PUSH1 0x20 ADD SWAP1 DUP2 MSTORE PUSH1 0x20 ADD PUSH1 0x0 KECCAK256 SLOAD SWAP3 POP SWAP3 POP POP SWAP3 POP SWAP3 SWAP1 POP JUMP JUMPDEST PUSH1 0x0 PUSH2 0x4BB DUP3 DUP5 PUSH1 0x0 ADD PUSH2 0x586 SWAP1 SWAP2 SWAP1 PUSH4 0xFFFFFFFF AND JUMP JUMPDEST SWAP1 POP SWAP3 SWAP2 POP POP JUMP JUMPDEST PUSH1 0x0 DUP1 DUP4 PUSH1 0x2 ADD PUSH1 0x0 DUP5 DUP2 MSTORE PUSH1 0x20 ADD SWAP1 DUP2 MSTORE PUSH1 0x20 ADD PUSH1 0x0 KECCAK256 SLOAD SWAP1 POP PUSH1 0x0 DUP1 SHL DUP2 EQ DUP1 ISZERO PUSH2 0x4F7 JUMPI POP PUSH2 0x4F5 DUP5 DUP5 PUSH2 0x4A3 JUMP JUMPDEST ISZERO JUMPDEST ISZERO PUSH2 0x539 JUMPI DUP3 PUSH1 0x40 MLOAD PUSH32 0x2B5668600000000000000000000000000000000000000000000000000000000 DUP2 MSTORE PUSH1 0x4 ADD PUSH2 0x530 SWAP2 SWAP1 PUSH2 0xD0C JUMP JUMPDEST PUSH1 0x40 MLOAD DUP1 SWAP2 SUB SWAP1 REVERT JUMPDEST DUP1 SWAP2 POP POP SWAP3 SWAP2 POP POP JUMP JUMPDEST PUSH1 0x0 PUSH2 0x551 DUP3 PUSH1 0x0 ADD PUSH2 0x59D JUMP JUMPDEST SWAP1 POP SWAP2 SWAP1 POP JUMP JUMPDEST PUSH1 0x0 PUSH2 0x567 DUP4 PUSH1 0x0 ADD DUP4 PUSH2 0x5B2 JUMP JUMPDEST SWAP1 POP SWAP3 SWAP2 POP POP JUMP JUMPDEST PUSH1 0x0 PUSH2 0x57E DUP4 PUSH1 0x0 ADD DUP4 PUSH2 0x622 JUMP JUMPDEST SWAP1 POP SWAP3 SWAP2 POP POP JUMP JUMPDEST PUSH1 0x0 PUSH2 0x595 DUP4 PUSH1 0x0 ADD DUP4 PUSH2 0x64D JUMP JUMPDEST SWAP1 POP SWAP3 SWAP2 POP POP JUMP JUMPDEST PUSH1 0x0 PUSH2 0x5AB DUP3 PUSH1 0x0 ADD PUSH2 0x670 JUMP JUMPDEST SWAP1 POP SWAP2 SWAP1 POP JUMP JUMPDEST PUSH1 0x0 PUSH2 0x5BE DUP4 DUP4 PUSH2 0x64D JUMP JUMPDEST PUSH2 0x617 JUMPI DUP3 PUSH1 0x0 ADD DUP3 SWAP1 DUP1 PUSH1 0x1 DUP2 SLOAD ADD DUP1 DUP3 SSTORE DUP1 SWAP2 POP POP PUSH1 0x1 SWAP1 SUB SWAP1 PUSH1 0x0 MSTORE PUSH1 0x20 PUSH1 0x0 KECCAK256 ADD PUSH1 0x0 SWAP1 SWAP2 SWAP1 SWAP2 SWAP1 SWAP2 POP SSTORE DUP3 PUSH1 0x0 ADD DUP1 SLOAD SWAP1 POP DUP4 PUSH1 0x1 ADD PUSH1 0x0 DUP5 DUP2 MSTORE PUSH1 0x20 ADD SWAP1 DUP2 MSTORE PUSH1 0x20 ADD PUSH1 0x0 KECCAK256 DUP2 SWAP1 SSTORE POP PUSH1 0x1 SWAP1 POP PUSH2 0x61C JUMP JUMPDEST PUSH1 0x0 SWAP1 POP JUMPDEST SWAP3 SWAP2 POP POP JUMP JUMPDEST PUSH1 0x0 DUP3 PUSH1 0x0 ADD DUP3 DUP2 SLOAD DUP2 LT PUSH2 0x63A JUMPI PUSH2 0x639 PUSH2 0xD27 JUMP JUMPDEST JUMPDEST SWAP1 PUSH1 0x0 MSTORE PUSH1 0x20 PUSH1 0x0 KECCAK256 ADD SLOAD SWAP1 POP SWAP3 SWAP2 POP POP JUMP JUMPDEST PUSH1 0x0 DUP1 DUP4 PUSH1 0x1 ADD PUSH1 0x0 DUP5 DUP2 MSTORE PUSH1 0x20 ADD SWAP1 DUP2 MSTORE PUSH1 0x20 ADD PUSH1 0x0 KECCAK256 SLOAD EQ ISZERO SWAP1 POP SWAP3 SWAP2 POP POP JUMP JUMPDEST PUSH1 0x0 DUP2 PUSH1 0x0 ADD DUP1 SLOAD SWAP1 POP SWAP1 POP SWAP2 SWAP1 POP JUMP JUMPDEST PUSH1 0x0 PUSH1 0x40 MLOAD SWAP1 POP SWAP1 JUMP JUMPDEST PUSH1 0x0 DUP1 REVERT JUMPDEST PUSH1 0x0 DUP1 REVERT JUMPDEST PUSH1 0x0 PUSH20 0xFFFFFFFFFFFFFFFFFFFFFFFFFFFFFFFFFFFFFFFF DUP3 AND SWAP1 POP SWAP2 SWAP1 POP JUMP JUMPDEST PUSH1 0x0 PUSH2 0x6C0 DUP3 PUSH2 0x695 JUMP JUMPDEST SWAP1 POP SWAP2 SWAP1 POP JUMP JUMPDEST PUSH2 0x6D0 DUP2 PUSH2 0x6B5 JUMP JUMPDEST DUP2 EQ PUSH2 0x6DB JUMPI PUSH1 0x0 DUP1 REVERT JUMPDEST POP JUMP JUMPDEST PUSH1 0x0 DUP2 CALLDATALOAD SWAP1 POP PUSH2 0x6ED DUP2 PUSH2 0x6C7 JUMP JUMPDEST SWAP3 SWAP2 POP POP JUMP JUMPDEST PUSH1 0x0 PUSH1 0x20 DUP3 DUP5 SUB SLT ISZERO PUSH2 0x709 JUMPI PUSH2 0x708 PUSH2 0x68B JUMP JUMPDEST JUMPDEST PUSH1 0x0 PUSH2 0x717 DUP5 DUP3 DUP6 ADD PUSH2 0x6DE JUMP JUMPDEST SWAP2 POP POP SWAP3 SWAP2 POP POP JUMP JUMPDEST PUSH1 0x0 DUP2 MLOAD SWAP1 POP SWAP2 SWAP1 POP JUMP JUMPDEST PUSH1 0x0 DUP3 DUP3 MSTORE PUSH1 0x20 DUP3 ADD SWAP1 POP SWAP3 SWAP2 POP POP JUMP JUMPDEST PUSH1 0x0 JUMPDEST DUP4 DUP2 LT ISZERO PUSH2 0x75A JUMPI DUP1 DUP3 ADD MLOAD DUP2 DUP5 ADD MSTORE PUSH1 0x20 DUP2 ADD SWAP1 POP PUSH2 0x73F JUMP JUMPDEST PUSH1 0x0 DUP5 DUP5 ADD MSTORE POP POP POP POP JUMP JUMPDEST PUSH1 0x0 PUSH1 0x1F NOT PUSH1 0x1F DUP4 ADD AND SWAP1 POP SWAP2 SWAP1 POP JUMP JUMPDEST PUSH1 0x0 PUSH2 0x782 DUP3 PUSH2 0x720 JUMP JUMPDEST PUSH2 0x78C DUP2 DUP6 PUSH2 0x72B JUMP JUMPDEST SWAP4 POP PUSH2 0x79C DUP2 DUP6 PUSH1 0x20 DUP7 ADD PUSH2 0x73C JUMP JUMPDEST PUSH2 0x7A5 DUP2 PUSH2 0x766 JUMP JUMPDEST DUP5 ADD SWAP2 POP POP SWAP3 SWAP2 POP POP JUMP JUMPDEST PUSH1 0x0 PUSH1 0x20 DUP3 ADD SWAP1 POP DUP2 DUP2 SUB PUSH1 0x0 DUP4 ADD MSTORE PUSH2 0x7CA DUP2 DUP5 PUSH2 0x777 JUMP JUMPDEST SWAP1 POP SWAP3 SWAP2 POP POP JUMP JUMPDEST PUSH1 0x0 DUP2 SWAP1 POP SWAP2 SWAP1 POP JUMP JUMPDEST PUSH2 0x7E5 DUP2 PUSH2 0x7D2 JUMP JUMPDEST DUP2 EQ PUSH2 0x7F0 JUMPI PUSH1 0x0 DUP1 REVERT JUMPDEST POP JUMP JUMPDEST PUSH1 0x0 DUP2 CALLDATALOAD SWAP1 POP PUSH2 0x802 DUP2 PUSH2 0x7DC JUMP JUMPDEST SWAP3 SWAP2 POP POP JUMP JUMPDEST PUSH1 0x0 PUSH1 0x20 DUP3 DUP5 SUB SLT ISZERO PUSH2 0x81E JUMPI PUSH2 0x81D PUSH2 0x68B JUMP JUMPDEST JUMPDEST PUSH1 0x0 PUSH2 0x82C DUP5 DUP3 DUP6 ADD PUSH2 0x7F3 JUMP JUMPDEST SWAP2 POP POP SWAP3 SWAP2 POP POP JUMP JUMPDEST PUSH2 0x83E DUP2 PUSH2 0x6B5 JUMP JUMPDEST DUP3 MSTORE POP POP JUMP JUMPDEST PUSH2 0x84D DUP2 PUSH2 0x7D2 JUMP JUMPDEST DUP3 MSTORE POP POP JUMP JUMPDEST PUSH1 0x0 PUSH1 0x40 DUP3 ADD SWAP1 POP PUSH2 0x868 PUSH1 0x0 DUP4 ADD DUP6 PUSH2 0x835 JUMP JUMPDEST PUSH2 0x875 PUSH1 0x20 DUP4 ADD DUP5 PUSH2 0x844 JUMP JUMPDEST SWAP4 SWAP3 POP POP POP JUMP JUMPDEST PUSH1 0x0 PUSH1 0x20 DUP3 ADD SWAP1 POP PUSH2 0x891 PUSH1 0x0 DUP4 ADD DUP5 PUSH2 0x844 JUMP JUMPDEST SWAP3 SWAP2 POP POP JUMP JUMPDEST PUSH1 0x0 DUP1 REVERT JUMPDEST PUSH1 0x0 DUP1 REVERT JUMPDEST PUSH32 0x4E487B7100000000000000000000000000000000000000000000000000000000 PUSH1 0x0 MSTORE PUSH1 0x41 PUSH1 0x4 MSTORE PUSH1 0x24 PUSH1 0x0 REVERT JUMPDEST PUSH2 0x8D9 DUP3 PUSH2 0x766 JUMP JUMPDEST DUP2 ADD DUP2 DUP2 LT PUSH8 0xFFFFFFFFFFFFFFFF DUP3 GT OR ISZERO PUSH2 0x8F8 JUMPI PUSH2 0x8F7 PUSH2 0x8A1 JUMP JUMPDEST JUMPDEST DUP1 PUSH1 0x40 MSTORE POP POP POP JUMP JUMPDEST PUSH1 0x0 PUSH2 0x90B PUSH2 0x681 JUMP JUMPDEST SWAP1 POP PUSH2 0x917 DUP3 DUP3 PUSH2 0x8D0 JUMP JUMPDEST SWAP2 SWAP1 POP JUMP JUMPDEST PUSH1 0x0 PUSH8 0xFFFFFFFFFFFFFFFF DUP3 GT ISZERO PUSH2 0x937 JUMPI PUSH2 0x936 PUSH2 0x8A1 JUMP JUMPDEST JUMPDEST PUSH2 0x940 DUP3 PUSH2 0x766 JUMP JUMPDEST SWAP1 POP PUSH1 0x20 DUP2 ADD SWAP1 POP SWAP2 SWAP1 POP JUMP JUMPDEST DUP3 DUP2 DUP4 CALLDATACOPY PUSH1 0x0 DUP4 DUP4 ADD MSTORE POP POP POP JUMP JUMPDEST PUSH1 0x0 PUSH2 0x96F PUSH2 0x96A DUP5 PUSH2 0x91C JUMP JUMPDEST PUSH2 0x901 JUMP JUMPDEST SWAP1 POP DUP3 DUP2 MSTORE PUSH1 0x20 DUP2 ADD DUP5 DUP5 DUP5 ADD GT ISZERO PUSH2 0x98B JUMPI PUSH2 0x98A PUSH2 0x89C JUMP JUMPDEST JUMPDEST PUSH2 0x996 DUP5 DUP3 DUP6 PUSH2 0x94D JUMP JUMPDEST POP SWAP4 SWAP3 POP POP POP JUMP JUMPDEST PUSH1 0x0 DUP3 PUSH1 0x1F DUP4 ADD SLT PUSH2 0x9B3 JUMPI PUSH2 0x9B2 PUSH2 0x897 JUMP JUMPDEST JUMPDEST DUP2 CALLDATALOAD PUSH2 0x9C3 DUP5 DUP3 PUSH1 0x20 DUP7 ADD PUSH2 0x95C JUMP JUMPDEST SWAP2 POP POP SWAP3 SWAP2 POP POP JUMP JUMPDEST PUSH1 0x0 PUSH1 0x20 DUP3 DUP5 SUB SLT ISZERO PUSH2 0x9E2 JUMPI PUSH2 0x9E1 PUSH2 0x68B JUMP JUMPDEST JUMPDEST PUSH1 0x0 DUP3 ADD CALLDATALOAD PUSH8 0xFFFFFFFFFFFFFFFF DUP2 GT ISZERO PUSH2 0xA00 JUMPI PUSH2 0x9FF PUSH2 0x690 JUMP JUMPDEST JUMPDEST PUSH2 0xA0C DUP5 DUP3 DUP6 ADD PUSH2 0x99E JUMP JUMPDEST SWAP2 POP POP SWAP3 SWAP2 POP POP JUMP JUMPDEST PUSH32 0x4E487B7100000000000000000000000000000000000000000000000000000000 PUSH1 0x0 MSTORE PUSH1 0x22 PUSH1 0x4 MSTORE PUSH1 0x24 PUSH1 0x0 REVERT JUMPDEST PUSH1 0x0 PUSH1 0x2 DUP3 DIV SWAP1 POP PUSH1 0x1 DUP3 AND DUP1 PUSH2 0xA5C JUMPI PUSH1 0x7F DUP3 AND SWAP2 POP JUMPDEST PUSH1 0x20 DUP3 LT DUP2 SUB PUSH2 0xA6F JUMPI PUSH2 0xA6E PUSH2 0xA15 JUMP JUMPDEST JUMPDEST POP SWAP2 SWAP1 POP JUMP JUMPDEST PUSH1 0x0 DUP2 SWAP1 POP DUP2 PUSH1 0x0 MSTORE PUSH1 0x20 PUSH1 0x0 KECCAK256 SWAP1 POP SWAP2 SWAP1 POP JUMP JUMPDEST PUSH1 0x0 PUSH1 0x20 PUSH1 0x1F DUP4 ADD DIV SWAP1 POP SWAP2 SWAP1 POP JUMP JUMPDEST PUSH1 0x0 DUP3 DUP3 SHL SWAP1 POP SWAP3 SWAP2 POP POP JUMP JUMPDEST PUSH1 0x0 PUSH1 0x8 DUP4 MUL PUSH2 0xAD7 PUSH32 0xFFFFFFFFFFFFFFFFFFFFFFFFFFFFFFFFFFFFFFFFFFFFFFFFFFFFFFFFFFFFFFFF DUP3 PUSH2 0xA9A JUMP JUMPDEST PUSH2 0xAE1 DUP7 DUP4 PUSH2 0xA9A JUMP JUMPDEST SWAP6 POP DUP1 NOT DUP5 AND SWAP4 POP DUP1 DUP7 AND DUP5 OR SWAP3 POP POP POP SWAP4 SWAP3 POP POP POP JUMP JUMPDEST PUSH1 0x0 DUP2 SWAP1 POP SWAP2 SWAP1 POP JUMP JUMPDEST PUSH1 0x0 PUSH2 0xB1E PUSH2 0xB19 PUSH2 0xB14 DUP5 PUSH2 0x7D2 JUMP JUMPDEST PUSH2 0xAF9 JUMP JUMPDEST PUSH2 0x7D2 JUMP JUMPDEST SWAP1 POP SWAP2 SWAP1 POP JUMP JUMPDEST PUSH1 0x0 DUP2 SWAP1 POP SWAP2 SWAP1 POP JUMP JUMPDEST PUSH2 0xB38 DUP4 PUSH2 0xB03 JUMP JUMPDEST PUSH2 0xB4C PUSH2 0xB44 DUP3 PUSH2 0xB25 JUMP JUMPDEST DUP5 DUP5 SLOAD PUSH2 0xAA7 JUMP JUMPDEST DUP3 SSTORE POP POP POP POP JUMP JUMPDEST PUSH1 0x0 SWAP1 JUMP JUMPDEST PUSH2 0xB61 PUSH2 0xB54 JUMP JUMPDEST PUSH2 0xB6C DUP2 DUP5 DUP5 PUSH2 0xB2F JUMP JUMPDEST POP POP POP JUMP JUMPDEST JUMPDEST DUP2 DUP2 LT ISZERO PUSH2 0xB90 JUMPI PUSH2 0xB85 PUSH1 0x0 DUP3 PUSH2 0xB59 JUMP JUMPDEST PUSH1 0x1 DUP2 ADD SWAP1 POP PUSH2 0xB72 JUMP JUMPDEST POP POP JUMP JUMPDEST PUSH1 0x1F DUP3 GT ISZERO PUSH2 0xBD5 JUMPI PUSH2 0xBA6 DUP2 PUSH2 0xA75 JUMP JUMPDEST PUSH2 0xBAF DUP5 PUSH2 0xA8A JUMP JUMPDEST DUP2 ADD PUSH1 0x20 DUP6 LT ISZERO PUSH2 0xBBE JUMPI DUP2 SWAP1 POP JUMPDEST PUSH2 0xBD2 PUSH2 0xBCA DUP6 PUSH2 0xA8A JUMP JUMPDEST DUP4 ADD DUP3 PUSH2 0xB71 JUMP JUMPDEST POP POP JUMPDEST POP POP POP JUMP JUMPDEST PUSH1 0x0 DUP3 DUP3 SHR SWAP1 POP SWAP3 SWAP2 POP POP JUMP JUMPDEST PUSH1 0x0 PUSH2 0xBF8 PUSH1 0x0 NOT DUP5 PUSH1 0x8 MUL PUSH2 0xBDA JUMP JUMPDEST NOT DUP1 DUP4 AND SWAP2 POP POP SWAP3 SWAP2 POP POP JUMP JUMPDEST PUSH1 0x0 PUSH2 0xC11 DUP4 DUP4 PUSH2 0xBE7 JUMP JUMPDEST SWAP2 POP DUP3 PUSH1 0x2 MUL DUP3 OR SWAP1 POP SWAP3 SWAP2 POP POP JUMP JUMPDEST PUSH2 0xC2A DUP3 PUSH2 0x720 JUMP JUMPDEST PUSH8 0xFFFFFFFFFFFFFFFF DUP2 GT ISZERO PUSH2 0xC43 JUMPI PUSH2 0xC42 PUSH2 0x8A1 JUMP JUMPDEST JUMPDEST PUSH2 0xC4D DUP3 SLOAD PUSH2 0xA44 JUMP JUMPDEST PUSH2 0xC58 DUP3 DUP3 DUP6 PUSH2 0xB94 JUMP JUMPDEST PUSH1 0x0 PUSH1 0x20 SWAP1 POP PUSH1 0x1F DUP4 GT PUSH1 0x1 DUP2 EQ PUSH2 0xC8B JUMPI PUSH1 0x0 DUP5 ISZERO PUSH2 0xC79 JUMPI DUP3 DUP8 ADD MLOAD SWAP1 POP JUMPDEST PUSH2 0xC83 DUP6 DUP3 PUSH2 0xC05 JUMP JUMPDEST DUP7 SSTORE POP PUSH2 0xCEB JUMP JUMPDEST PUSH1 0x1F NOT DUP5 AND PUSH2 0xC99 DUP7 PUSH2 0xA75 JUMP JUMPDEST PUSH1 0x0 JUMPDEST DUP3 DUP2 LT ISZERO PUSH2 0xCC1 JUMPI DUP5 DUP10 ADD MLOAD DUP3 SSTORE PUSH1 0x1 DUP3 ADD SWAP2 POP PUSH1 0x20 DUP6 ADD SWAP5 POP PUSH1 0x20 DUP2 ADD SWAP1 POP PUSH2 0xC9C JUMP JUMPDEST DUP7 DUP4 LT ISZERO PUSH2 0xCDE JUMPI DUP5 DUP10 ADD MLOAD PUSH2 0xCDA PUSH1 0x1F DUP10 AND DUP3 PUSH2 0xBE7 JUMP JUMPDEST DUP4 SSTORE POP JUMPDEST PUSH1 0x1 PUSH1 0x2 DUP9 MUL ADD DUP9 SSTORE POP POP POP JUMPDEST POP POP POP POP POP POP JUMP JUMPDEST PUSH1 0x0 DUP2 SWAP1 POP SWAP2 SWAP1 POP JUMP JUMPDEST PUSH2 0xD06 DUP2 PUSH2 0xCF3 JUMP JUMPDEST DUP3 MSTORE POP POP JUMP JUMPDEST PUSH1 0x0 PUSH1 0x20 DUP3 ADD SWAP1 POP PUSH2 0xD21 PUSH1 0x0 DUP4 ADD DUP5 PUSH2 0xCFD JUMP JUMPDEST SWAP3 SWAP2 POP POP JUMP JUMPDEST PUSH32 0x4E487B7100000000000000000000000000000000000000000000000000000000 PUSH1 0x0 MSTORE PUSH1 0x32 PUSH1 0x4 MSTORE PUSH1 0x24 PUSH1 0x0 REVERT INVALID LOG2 PUSH5 0x6970667358 0x22 SLT KECCAK256 0xBC MSTORE SWAP1 0xA8 0xDE 0xD7 0xD3 0x1F MCOPY GASPRICE DUP8 SWAP10 0xD8 0x27 0xDD 0x2C SWAP8 0xD0 0xCC 0xAE DUP15 PUSH11 0x5591793CD8595470CF6E64 PUSH20 0x6F6C634300081800330000000000000000000000 "
        },
        "methodIdentifiers": {
          "getHighscore(address)": "a0bf9427",
          "getHighscoreByIndex(uint256)": "6a239ee9",
          "getHighscoreLength()": "e8916064",
          "getName(address)": "5fd4b08a",
          "resetHighscore()": "0304c36e",
          "updateHighscore(uint256)": "7ff11b88",
          "updatePlayerName(string)": "febda2e8"
        }
      },
      "storageLayout": {
        "storage": [
          {
            "astId": 1738,
            "contract": "contracts/score.sol:FraxtaL3aderboard2048",
            "label": "playerNames",
            "offset": 0,
            "slot": "0",
            "type": "t_mapping(t_address,t_string_storage)"
          },
          {
            "astId": 1741,
            "contract": "contracts/score.sol:FraxtaL3aderboard2048",
            "label": "playerHighscores",
            "offset": 0,
            "slot": "1",
            "type": "t_struct(AddressToUintMap)679_storage"
          }
        ],
        "types": {
          "t_address": {
            "encoding": "inplace",
            "label": "address",
            "numberOfBytes": "20"
          },
          "t_array(t_bytes32)dyn_storage": {
            "base": "t_bytes32",
            "encoding": "dynamic_array",
            "label": "bytes32[]",
            "numberOfBytes": "32"
          },
          "t_bytes32": {
            "encoding": "inplace",
            "label": "bytes32",
            "numberOfBytes": "32"
          },
          "t_mapping(t_address,t_string_storage)": {
            "encoding": "mapping",
            "key": "t_address",
            "label": "mapping(address => string)",
            "numberOfBytes": "32",
            "value": "t_string_storage"
          },
          "t_mapping(t_bytes32,t_bytes32)": {
            "encoding": "mapping",
            "key": "t_bytes32",
            "label": "mapping(bytes32 => bytes32)",
            "numberOfBytes": "32",
            "value": "t_bytes32"
          },
          "t_mapping(t_bytes32,t_uint256)": {
            "encoding": "mapping",
            "key": "t_bytes32",
            "label": "mapping(bytes32 => uint256)",
            "numberOfBytes": "32",
            "value": "t_uint256"
          },
          "t_string_storage": {
            "encoding": "bytes",
            "label": "string",
            "numberOfBytes": "32"
          },
          "t_struct(AddressToUintMap)679_storage": {
            "encoding": "inplace",
            "label": "struct EnumerableMap.AddressToUintMap",
            "members": [
              {
                "astId": 678,
                "contract": "contracts/score.sol:FraxtaL3aderboard2048",
                "label": "_inner",
                "offset": 0,
                "slot": "0",
                "type": "t_struct(Bytes32ToBytes32Map)21_storage"
              }
            ],
            "numberOfBytes": "96"
          },
          "t_struct(Bytes32Set)1319_storage": {
            "encoding": "inplace",
            "label": "struct EnumerableSet.Bytes32Set",
            "members": [
              {
                "astId": 1318,
                "contract": "contracts/score.sol:FraxtaL3aderboard2048",
                "label": "_inner",
                "offset": 0,
                "slot": "0",
                "type": "t_struct(Set)1125_storage"
              }
            ],
            "numberOfBytes": "64"
          },
          "t_struct(Bytes32ToBytes32Map)21_storage": {
            "encoding": "inplace",
            "label": "struct EnumerableMap.Bytes32ToBytes32Map",
            "members": [
              {
                "astId": 16,
                "contract": "contracts/score.sol:FraxtaL3aderboard2048",
                "label": "_keys",
                "offset": 0,
                "slot": "0",
                "type": "t_struct(Bytes32Set)1319_storage"
              },
              {
                "astId": 20,
                "contract": "contracts/score.sol:FraxtaL3aderboard2048",
                "label": "_values",
                "offset": 0,
                "slot": "2",
                "type": "t_mapping(t_bytes32,t_bytes32)"
              }
            ],
            "numberOfBytes": "96"
          },
          "t_struct(Set)1125_storage": {
            "encoding": "inplace",
            "label": "struct EnumerableSet.Set",
            "members": [
              {
                "astId": 1120,
                "contract": "contracts/score.sol:FraxtaL3aderboard2048",
                "label": "_values",
                "offset": 0,
                "slot": "0",
                "type": "t_array(t_bytes32)dyn_storage"
              },
              {
                "astId": 1124,
                "contract": "contracts/score.sol:FraxtaL3aderboard2048",
                "label": "_positions",
                "offset": 0,
                "slot": "1",
                "type": "t_mapping(t_bytes32,t_uint256)"
              }
            ],
            "numberOfBytes": "64"
          },
          "t_uint256": {
            "encoding": "inplace",
            "label": "uint256",
            "numberOfBytes": "32"
          }
        }
      }
    }
  }
}