{
  "_format": "hh-sol-artifact-1",
  "contractName": "FraxtaL3aderboard2048",
  "sourceName": "contracts/score.sol",
  "abi": [
    {
      "inputs": [
        {
          "internalType": "bytes32",
          "name": "key",
          "type": "bytes32"
        }
      ],
      "name": "EnumerableMapNonexistentKey",
      "type": "error"
    },
    {
      "inputs": [
        {
          "internalType": "address",
          "name": "_address",
          "type": "address"
        }
      ],
      "name": "getHighscore",
      "outputs": [
        {
          "internalType": "uint256",
          "name": "highscore",
          "type": "uint256"
        }
      ],
      "stateMutability": "view",
      "type": "function"
    },
    {
      "inputs": [
        {
          "internalType": "uint256",
          "name": "index",
          "type": "uint256"
        }
      ],
      "name": "getHighscoreByIndex",
      "outputs": [
        {
          "internalType": "address",
          "name": "_address",
          "type": "address"
        },
        {
          "internalType": "uint256",
          "name": "highscore",
          "type": "uint256"
        }
      ],
      "stateMutability": "view",
      "type": "function"
    },
    {
      "inputs": [],
      "name": "getHighscoreLength",
      "outputs": [
        {
          "internalType": "uint256",
          "name": "length",
          "type": "uint256"
        }
      ],
      "stateMutability": "view",
      "type": "function"
    },
    {
      "inputs": [
        {
          "internalType": "address",
          "name": "_address",
          "type": "address"
        }
      ],
      "name": "getName",
      "outputs": [
        {
          "internalType": "string",
          "name": "name",
          "type": "string"
        }
      ],
      "stateMutability": "view",
      "type": "function"
    },
    {
      "inputs": [],
      "name": "resetHighscore",
      "outputs": [],
      "stateMutability": "nonpayable",
      "type": "function"
    },
    {
      "inputs": [
        {
          "internalType": "uint256",
          "name": "_newHighscore",
          "type": "uint256"
        }
      ],
      "name": "updateHighscore",
      "outputs": [],
      "stateMutability": "nonpayable",
      "type": "function"
    },
    {
      "inputs": [
        {
          "internalType": "string",
          "name": "_name",
          "type": "string"
        }
      ],
      "name": "updatePlayerName",
      "outputs": [],
      "stateMutability": "nonpayable",
      "type": "function"
    }
  ],
  "bytecode": "0x608060405234801561001057600080fd5b50610d8c806100206000396000f3fe608060405234801561001057600080fd5b506004361061007d5760003560e01c80637ff11b881161005b5780637ff11b88146100ed578063a0bf942714610109578063e891606414610139578063febda2e8146101575761007d565b80630304c36e146100825780635fd4b08a1461008c5780636a239ee9146100bc575b600080fd5b61008a610173565b005b6100a660048036038101906100a191906106f3565b61018d565b6040516100b391906107b0565b60405180910390f35b6100d660048036038101906100d19190610808565b61025d565b6040516100e4929190610853565b60405180910390f35b61010760048036038101906101029190610808565b61027d565b005b610123600480360381019061011e91906106f3565b6102d2565b604051610130919061087c565b60405180910390f35b6101416102ef565b60405161014e919061087c565b60405180910390f35b610171600480360381019061016c91906109cc565b610300565b005b61018a336000600161034f9092919063ffffffff16565b50565b60606000808373ffffffffffffffffffffffffffffffffffffffff1673ffffffffffffffffffffffffffffffffffffffff16815260200190815260200160002080546101d890610a44565b80601f016020809104026020016040519081016040528092919081815260200182805461020490610a44565b80156102515780601f1061022657610100808354040283529160200191610251565b820191906000526020600020905b81548152906001019060200180831161023457829003601f168201915b50505050509050919050565b60008061027483600161038490919063ffffffff16565b91509150915091565b6102913360016103b090919063ffffffff16565b15806102af5750806102ad3360016103e090919063ffffffff16565b105b6102b857600080fd5b6102ce3382600161034f9092919063ffffffff16565b5050565b60006102e88260016103e090919063ffffffff16565b9050919050565b60006102fb6001610413565b905090565b806000803373ffffffffffffffffffffffffffffffffffffffff1673ffffffffffffffffffffffffffffffffffffffff168152602001908152602001600020908161034b9190610c21565b5050565b600061037b846000018473ffffffffffffffffffffffffffffffffffffffff1660001b8460001b610428565b90509392505050565b6000806000806103978660000186610463565b915091508160001c8160001c9350935050509250929050565b60006103d8836000018373ffffffffffffffffffffffffffffffffffffffff1660001b6104a3565b905092915050565b6000610408836000018373ffffffffffffffffffffffffffffffffffffffff1660001b6104c3565b60001c905092915050565b600061042182600001610543565b9050919050565b6000818460020160008581526020019081526020016000208190555061045a838560000161055890919063ffffffff16565b90509392505050565b600080600061047e848660000161056f90919063ffffffff16565b9050808560020160008381526020019081526020016000205492509250509250929050565b60006104bb828460000161058690919063ffffffff16565b905092915050565b6000808360020160008481526020019081526020016000205490506000801b811480156104f757506104f584846104a3565b155b1561053957826040517f02b566860000000000000000000000000000000000000000000000000000000081526004016105309190610d0c565b60405180910390fd5b8091505092915050565b60006105518260000161059d565b9050919050565b600061056783600001836105b2565b905092915050565b600061057e8360000183610622565b905092915050565b6000610595836000018361064d565b905092915050565b60006105ab82600001610670565b9050919050565b60006105be838361064d565b61061757826000018290806001815401808255809150506001900390600052602060002001600090919091909150558260000180549050836001016000848152602001908152602001600020819055506001905061061c565b600090505b92915050565b600082600001828154811061063a57610639610d27565b5b9060005260206000200154905092915050565b600080836001016000848152602001908152602001600020541415905092915050565b600081600001805490509050919050565b6000604051905090565b600080fd5b600080fd5b600073ffffffffffffffffffffffffffffffffffffffff82169050919050565b60006106c082610695565b9050919050565b6106d0816106b5565b81146106db57600080fd5b50565b6000813590506106ed816106c7565b92915050565b6000602082840312156107095761070861068b565b5b6000610717848285016106de565b91505092915050565b600081519050919050565b600082825260208201905092915050565b60005b8381101561075a57808201518184015260208101905061073f565b60008484015250505050565b6000601f19601f8301169050919050565b600061078282610720565b61078c818561072b565b935061079c81856020860161073c565b6107a581610766565b840191505092915050565b600060208201905081810360008301526107ca8184610777565b905092915050565b6000819050919050565b6107e5816107d2565b81146107f057600080fd5b50565b600081359050610802816107dc565b92915050565b60006020828403121561081e5761081d61068b565b5b600061082c848285016107f3565b91505092915050565b61083e816106b5565b82525050565b61084d816107d2565b82525050565b60006040820190506108686000830185610835565b6108756020830184610844565b9392505050565b60006020820190506108916000830184610844565b92915050565b600080fd5b600080fd5b7f4e487b7100000000000000000000000000000000000000000000000000000000600052604160045260246000fd5b6108d982610766565b810181811067ffffffffffffffff821117156108f8576108f76108a1565b5b80604052505050565b600061090b610681565b905061091782826108d0565b919050565b600067ffffffffffffffff821115610937576109366108a1565b5b61094082610766565b9050602081019050919050565b82818337600083830152505050565b600061096f61096a8461091c565b610901565b90508281526020810184848401111561098b5761098a61089c565b5b61099684828561094d565b509392505050565b600082601f8301126109b3576109b2610897565b5b81356109c384826020860161095c565b91505092915050565b6000602082840312156109e2576109e161068b565b5b600082013567ffffffffffffffff811115610a00576109ff610690565b5b610a0c8482850161099e565b91505092915050565b7f4e487b7100000000000000000000000000000000000000000000000000000000600052602260045260246000fd5b60006002820490506001821680610a5c57607f821691505b602082108103610a6f57610a6e610a15565b5b50919050565b60008190508160005260206000209050919050565b60006020601f8301049050919050565b600082821b905092915050565b600060088302610ad77fffffffffffffffffffffffffffffffffffffffffffffffffffffffffffffffff82610a9a565b610ae18683610a9a565b95508019841693508086168417925050509392505050565b6000819050919050565b6000610b1e610b19610b14846107d2565b610af9565b6107d2565b9050919050565b6000819050919050565b610b3883610b03565b610b4c610b4482610b25565b848454610aa7565b825550505050565b600090565b610b61610b54565b610b6c818484610b2f565b505050565b5b81811015610b9057610b85600082610b59565b600181019050610b72565b5050565b601f821115610bd557610ba681610a75565b610baf84610a8a565b81016020851015610bbe578190505b610bd2610bca85610a8a565b830182610b71565b50505b505050565b600082821c905092915050565b6000610bf860001984600802610bda565b1980831691505092915050565b6000610c118383610be7565b9150826002028217905092915050565b610c2a82610720565b67ffffffffffffffff811115610c4357610c426108a1565b5b610c4d8254610a44565b610c58828285610b94565b600060209050601f831160018114610c8b5760008415610c79578287015190505b610c838582610c05565b865550610ceb565b601f198416610c9986610a75565b60005b82811015610cc157848901518255600182019150602085019450602081019050610c9c565b86831015610cde5784890151610cda601f891682610be7565b8355505b6001600288020188555050505b505050505050565b6000819050919050565b610d0681610cf3565b82525050565b6000602082019050610d216000830184610cfd565b92915050565b7f4e487b7100000000000000000000000000000000000000000000000000000000600052603260045260246000fdfea2646970667358221220bc5290a8ded7d31f5e3a8799d827dd2c97d0ccae8e6a5591793cd8595470cf6e64736f6c63430008180033",
  "linkReferences": {},
  "deployedLinkReferences": {}
}