{
  "_format": "hh-sol-artifact-1",
  "contractName": "FraxtaL3aderboard",
  "sourceName": "contracts/score.sol",
  "abi": [
    {
      "inputs": [
        {
          "internalType": "string",
          "name": "_name",
          "type": "string"
        }
      ],
      "name": "addPlayer",
      "outputs": [],
      "stateMutability": "nonpayable",
      "type": "function"
    },
    {
      "inputs": [
        {
          "internalType": "address",
          "name": "_player",
          "type": "address"
        }
      ],
      "name": "getHighscore",
      "outputs": [
        {
          "internalType": "string",
          "name": "name",
          "type": "string"
        },
        {
          "internalType": "uint256",
          "name": "highscore",
          "type": "uint256"
        }
      ],
      "stateMutability": "view",
      "type": "function"
    },
    {
      "inputs": [
        {
          "internalType": "uint256",
          "name": "_newHighscore",
          "type": "uint256"
        }
      ],
      "name": "updateHighscore",
      "outputs": [],
      "stateMutability": "nonpayable",
      "type": "function"
    }
  ],
  "bytecode": "0x608060405234801561001057600080fd5b50610bb0806100206000396000f3fe608060405234801561001057600080fd5b50600436106100415760003560e01c80637ff11b8814610046578063a0bf942714610062578063f77e8b8314610093575b600080fd5b610060600480360381019061005b9190610499565b6100af565b005b61007c60048036038101906100779190610524565b61020b565b60405161008a9291906105f0565b60405180910390f35b6100ad60048036038101906100a89190610755565b6103b6565b005b60008060003373ffffffffffffffffffffffffffffffffffffffff1673ffffffffffffffffffffffffffffffffffffffff16815260200190815260200160002060000180546100fd906107cd565b90501161013f576040517f08c379a00000000000000000000000000000000000000000000000000000000081526004016101369061084a565b60405180910390fd5b6000803373ffffffffffffffffffffffffffffffffffffffff1673ffffffffffffffffffffffffffffffffffffffff1681526020019081526020016000206001015481116101c2576040517f08c379a00000000000000000000000000000000000000000000000000000000081526004016101b9906108dc565b60405180910390fd5b806000803373ffffffffffffffffffffffffffffffffffffffff1673ffffffffffffffffffffffffffffffffffffffff1681526020019081526020016000206001018190555050565b60606000806000808573ffffffffffffffffffffffffffffffffffffffff1673ffffffffffffffffffffffffffffffffffffffff168152602001908152602001600020600001805461025c906107cd565b90501161029e576040517f08c379a00000000000000000000000000000000000000000000000000000000081526004016102959061084a565b60405180910390fd5b6000808473ffffffffffffffffffffffffffffffffffffffff1673ffffffffffffffffffffffffffffffffffffffff1681526020019081526020016000206000016000808573ffffffffffffffffffffffffffffffffffffffff1673ffffffffffffffffffffffffffffffffffffffff1681526020019081526020016000206001015481805461032d906107cd565b80601f0160208091040260200160405190810160405280929190818152602001828054610359906107cd565b80156103a65780601f1061037b576101008083540402835291602001916103a6565b820191906000526020600020905b81548152906001019060200180831161038957829003601f168201915b5050505050915091509150915091565b806000803373ffffffffffffffffffffffffffffffffffffffff1673ffffffffffffffffffffffffffffffffffffffff16815260200190815260200160002060000190816104049190610aa8565b5060008060003373ffffffffffffffffffffffffffffffffffffffff1673ffffffffffffffffffffffffffffffffffffffff1681526020019081526020016000206001018190555050565b6000604051905090565b600080fd5b600080fd5b6000819050919050565b61047681610463565b811461048157600080fd5b50565b6000813590506104938161046d565b92915050565b6000602082840312156104af576104ae610459565b5b60006104bd84828501610484565b91505092915050565b600073ffffffffffffffffffffffffffffffffffffffff82169050919050565b60006104f1826104c6565b9050919050565b610501816104e6565b811461050c57600080fd5b50565b60008135905061051e816104f8565b92915050565b60006020828403121561053a57610539610459565b5b60006105488482850161050f565b91505092915050565b600081519050919050565b600082825260208201905092915050565b60005b8381101561058b578082015181840152602081019050610570565b60008484015250505050565b6000601f19601f8301169050919050565b60006105b382610551565b6105bd818561055c565b93506105cd81856020860161056d565b6105d681610597565b840191505092915050565b6105ea81610463565b82525050565b6000604082019050818103600083015261060a81856105a8565b905061061960208301846105e1565b9392505050565b600080fd5b600080fd5b7f4e487b7100000000000000000000000000000000000000000000000000000000600052604160045260246000fd5b61066282610597565b810181811067ffffffffffffffff821117156106815761068061062a565b5b80604052505050565b600061069461044f565b90506106a08282610659565b919050565b600067ffffffffffffffff8211156106c0576106bf61062a565b5b6106c982610597565b9050602081019050919050565b82818337600083830152505050565b60006106f86106f3846106a5565b61068a565b90508281526020810184848401111561071457610713610625565b5b61071f8482856106d6565b509392505050565b600082601f83011261073c5761073b610620565b5b813561074c8482602086016106e5565b91505092915050565b60006020828403121561076b5761076a610459565b5b600082013567ffffffffffffffff8111156107895761078861045e565b5b61079584828501610727565b91505092915050565b7f4e487b7100000000000000000000000000000000000000000000000000000000600052602260045260246000fd5b600060028204905060018216806107e557607f821691505b6020821081036107f8576107f761079e565b5b50919050565b7f506c61796572206e6f7420726567697374657265640000000000000000000000600082015250565b600061083460158361055c565b915061083f826107fe565b602082019050919050565b6000602082019050818103600083015261086381610827565b9050919050565b7f4e65772073636f7265206d75737420626520686967686572207468616e20746860008201527f652063757272656e74206869676873636f726500000000000000000000000000602082015250565b60006108c660338361055c565b91506108d18261086a565b604082019050919050565b600060208201905081810360008301526108f5816108b9565b9050919050565b60008190508160005260206000209050919050565b60006020601f8301049050919050565b600082821b905092915050565b60006008830261095e7fffffffffffffffffffffffffffffffffffffffffffffffffffffffffffffffff82610921565b6109688683610921565b95508019841693508086168417925050509392505050565b6000819050919050565b60006109a56109a061099b84610463565b610980565b610463565b9050919050565b6000819050919050565b6109bf8361098a565b6109d36109cb826109ac565b84845461092e565b825550505050565b600090565b6109e86109db565b6109f38184846109b6565b505050565b5b81811015610a1757610a0c6000826109e0565b6001810190506109f9565b5050565b601f821115610a5c57610a2d816108fc565b610a3684610911565b81016020851015610a45578190505b610a59610a5185610911565b8301826109f8565b50505b505050565b600082821c905092915050565b6000610a7f60001984600802610a61565b1980831691505092915050565b6000610a988383610a6e565b9150826002028217905092915050565b610ab182610551565b67ffffffffffffffff811115610aca57610ac961062a565b5b610ad482546107cd565b610adf828285610a1b565b600060209050601f831160018114610b125760008415610b00578287015190505b610b0a8582610a8c565b865550610b72565b601f198416610b20866108fc565b60005b82811015610b4857848901518255600182019150602085019450602081019050610b23565b86831015610b655784890151610b61601f891682610a6e565b8355505b6001600288020188555050505b50505050505056fea2646970667358221220f4b8bd20198f0ca1da98b6c3f829b9e6129beae90c95c860f6d0bbc0ace4f0ef64736f6c63430008180033",
  "linkReferences": {},
  "deployedLinkReferences": {}
}